:030000000208F6FD
:0C08F600787FE4F6D8FD75817102093DA1
:10098200008000C000EE00FF00EE00C000800040CA
:10099200001100000011004000FF00E600A6005810
:1009A200001A0000001B005A00A500E000F500DD5F
:1009B20000A3005D00280016002C0061009E00CC00
:1009C20000DB00C7009A0066004000350045006A5F
:1009D200009400B200BA00AD008F0070005A0053BC
:1009E200005B0073008B009B00A0009800880077DA
:0E09F200006A0066006C007800870092009694
:040D49000270000034
:070C5600858280AF03AE02AE
:100C5D00E4FDFCC3ED9FEC9E50070DBD00010C8023
:0F0C6D00F2E4FFFE0FBF00010EBE04F8BFFBF55F
:010C7C002255
:0E0CEA007F01120CF87F0A7E00120C5D7F81E4
:100CF8008FA0C2B3C2B4D2B57F017E00120C5DC210
:020D0800B52212
:100CA400D294D295D296D297C290C291C292C29354
:020CB4007F6659
:100CB6008FA0D2B3C2B4D2B57F017E00120C5DC242
:020CC600B52255
:100CC8007F38120CF87F0A7E00120C5D7F0F120C21
:100CD800F87F0A7E00120C5D120CEA7F0A7E000281
:020CE8000C5DA1
:100B9400D294D295D296D297C290C291C292C29365
:100BA40020970C7F74120CB6AF71AE70120AE42059
:100BB400960C7F73120CB6AF71AE70120B3F20957A
:100BC4000C7F73120CB6AF71AE70120BE120940C53
:0D0BD4007F41120CB6AF71AE70120A722292
:100D0A00D294D295D296D297C290C291C292C293ED
:100D1A0020970C7F53120CB6AF71AE70120A0022E4
:100C7D00120CA4209705E4F570F571209606757099
:100C8D00007571012095067570007571022094062E
:070C9D007570007571032260
:100D2A00120CA4209706757000757104209606753A
:0F0D3A00700075710520950675700075710522A2
:040A00008E088F09C4
:100A0400780A7C007D007BFF7A0979827E007F185A
:100A14001208D0C294C295C296C297D290D291D2F3
:100A240092D29320901AC290D29420940F7F2A12CB
:100A34000CB6120CEA7F0A7E00020C5DD290C294BE
:100A4400E4F522F523C3E523940CE5226480948025
:100A540050D1E52325E0240AF808E6F580AF09AE75
:0E0A640008120C5D0523E52370DB052280D708
:040BE100AB07AA06AE
:100BE500E4F508F509900001D290C294E58264010C
:100BF50045837022209011C290D294209406F583EB
:100C0500F5828004D290C294E4F580120C59758067
:060C1500FF120C5980D60D
:010C1B0022B6
:040AE400AB07AA06AC
:100AE800900000750800750901D290C294E5096468
:100AF8000145087041209011C290D294209406F5C7
:100B080008F5098004D290C294D3E58294FEE58367
:100B1800648094805006120C56A380EDC3E582943D
:100B280001E5836480948040C4120C56E5821582E6
:060B380070EA158380E65F
:010B3E002294
:040B3F00AB07AA0650
:100B4300900000750800750901D290C294E509640C
:100B5300014508703B209011C290D294209406F571
:100B630008F5098004D290C294D3E58294FEE5830C
:100B7300648094805010120C5674142582F582E41C
:100B83003583F58380E3E4F583F582120C5980BD48
:010B9300223F
:040A72008E088F0952
:100A7600780A7C007D007BFF7A09799A7E007F6682
:100A86001208D07B017A00D290C294EB64014A70BE
:100A96004C20900FC290D294209404FAFB8004D28A
:100AA60090C294E4FFFEEF25E0240AF808E6F580FC
:100AB6000FBF00010EEF64334E70EB7E007F32EF06
:100AC60025E0240AF808E6F580EF1F70011EBEFF38
:0D0AD600EEBFFFEBAF09AE08120C5D80AE65
:010AE30022F0
:100C1C00120CC8D2B77F1E7E00120C5DD290D291FE
:100C2C00D292D293C294C295C296C29720910512C9
:100C3C000C7D8006209003120D2A209305120B9434
:0A0C4C0080D12092CE120D0A80C95B
:10090200020C1CE493A3F8E493A34003F68001F2E3
:1009120008DFF48029E493A3F85407240CC8C333F6
:10092200C4540F4420C8834004F456800146F6DFC5
:10093200E4800B0102040810204080900D49E47EFF
:10094200019360BCA3FF543F30E509541FFEE493BA
:10095200A360010ECF54C025E060A840B8E493A381
:10096200FAE493A3F8E493A3C8C582C8CAC583CAAC
:10097200F0A3C8C582C8CAC583CADFE9DEE780BE64
:010D4D0000A5
:10080000E709F608DFFA8046E709F208DFFA803EDA
:1008100088828C83E709F0A3DFFA8032E309F608C7
:10082000DFFA8078E309F208DFFA807088828C832F
:10083000E309F0A3DFFA806489828A83E0A3F608E3
:10084000DFFA805889828A83E0A3F208DFFA804CBD
:1008500080D280FA80C680D4806980F28033801094
:1008600080A680EA809A80A880DA80E280CA8033FD
:1008700089828A83ECFAE493A3C8C582C8CCC58375
:10088000CCF0A3C8C582C8CCC583CCDFE9DEE78045
:100890000D89828A83E493A3F608DFF9ECFAA9F0C4
:1008A000EDFB2289828A83ECFAE0A3C8C582C8CC1A
:1008B000C583CCF0A3C8C582C8CCC583CCDFEADE33
:1008C000E880DB89828A83E493A3F208DFF980CC95
:1008D00088F0EF60010E4E60C388F0ED2402B4048E
:1008E0000050B9F582EB2402B4040050AF23234535
:0608F00082239008507302
:00000001FF
